:1001FD00D2BBBCB6BFDAC1EEA3BAD0A1B5E7CDACC8
:10020D00D1A70D0A00B6FEBCB6BFDAC1EEA3BA3156
:10021D00A1A2C4E3CAC7CBAD0D0A000932A1A2C485
:10022D00E3BCB8CBEAC1CB0D0A000933A1A2B5E7F7
:10023D00BFC6D7A8D2B5BAC3B2BBBAC30D0A00CEDA
:10024D00D2D4DA0D0A00CED2CAC7B5E7BFC6BBFA03
:10025D00C6F7C8CB0D0A00CED231CBEAC1CB0D0A01
:10026D0000B5E7BFC6D7A8D2B5CAC7D7EEBAC3B5D2
:10027D00C4D7A8D2B5A3ACCED2B0AEB5E7BFC60D2C
:10028D000A00C7EBD6D8D0C2CAB6B1F0B7A2BFDA52
:10029D00C1EE0D0A00C7EBCBB5B3F6D2BBBCB6BFF2
:0602AD00DAC1EE0D0A00AB
:06091200011C00011B00A6
:10060F00E4F5091200061207EC120770120842E413
:10061F00781CF67BFF7A0179FD1208697BFF7A025D
:10062F0079121208697BFF7A0279281208697BFF19
:10063F007A027937120869781CE61460FA24F1609F
:10064F001824DF60F224317020781C76011206DD49
:10065F00EF70E4781C763180DE120933781EEFF6E6
:0F066F0012013BE4781CF680CEE4781CF680C8BC
:10000600B2C21208EDB2C21208EDB2C21208EDB2C7
:0C001600C21208EDB2C21208EDB2C22204
:1007EC007580FFE4F59075A0FF75B0FF75C0FFD262
:1007FC0090D291D292D293D294D295D296D297751E
:0D080C0092FFF591C2C3D289D2A8D2AF22CB
:0A09070000007F057E49DEFEDFFCE4
:0109110022C3
:08088E008F148E138D128C11E2
:10089600E4F515F516F517F518781174FF12004FE3
:0B08A600EC4D4E4F600512090780EE7C
:0108B1002224
:0C08ED007F117ED07D1BDDFEDEFCDFFAFB
:0108F90022DC
:0E08B20000007F557E0C7D9BDDFEDEFCDFFA34
:0108C0002215
:0E08C10000007FEC7E547DBCDDFEDEFCDFFA25
:0108CF002206
:0E08D00000007FA97E187D3BDDFEDEFCDFFA16
:0108DE0022F7
:0C08FA007FA57E3B7D1CDDFEDEFCDFFAEE
:0109060022CE
:030003000207B140
:1007B100C0E0C0F0C083C082C0D075D000C000C00E
:1007C10001C002C003C004C005C006C0071203EB8C
:1007D100D007D006D005D004D003D002D001D0007C
:0B07E100D0D0D082D083D0F0D0E03226
:10013B008F0AE50A7023751B01C2C27BFF7A027915
:10014B004C120869C290D291D292D293D294D2958A
:10015B00D296D2971208B28076E51B640160030237
:10016B0001F3F51BD2C2E50A24FE602624FE604093
:10017B002403706C7BFF7A027953120869D290C208
:10018B0091D292D293D294D295D296D2971208C191
:10019B00803D7BFF7A027964120869D290D291C2BA
:1001AB0092D293D294D295D296D2971208D0801F26
:1001BB007BFF7A02796E120869D290D291D292C2E9
:1001CB0093D294D295D296D2971208FA1208D0D223
:1001DB0090D291D292D293D294D295D296D2972298
:1001EB007BFF7A02798F80067BFF7A0279A2120855
:0201FB00692277
:10059F007869616F206469616E20746F6E6720786F
:1005AF0075650000000000000000006E6920736890
:1005BF0069207368756900000000000000000000EA
:1005CF000000000000006E69206A692073756920C1
:1005DF006C6500000000000000000000000000003B
:1005EF00006469616E206B65207A6875616E207991
:1005FF00652068616F2062752068616F00010204D9
:10077000D2B57F017E007D007C0012088EC2B57F5D
:10078000017E007D007C0012088ED2B57F017E00C4
:100790007D007C0012088EC2A17F017E007D007C5E
:1007A0000012088ED2A17F017E007D007C0002082D
:0107B0008EBA
:1002B3007F061209287D357F1712091D7F0A7E00EC
:1002C3007D007C0012088E7F061209287D037F893A
:1002D30012091D7F057E007D007C0012088E7D4380
:1002E3007FCF12091D7F057E007D007C0012088EE2
:1002F3007D027FCB12091D7D0A7F1112091DE4FDCA
:100303007F1E12091D7D3F7F1912091D7D487F1B2A
:1003130012091D7D1F7F1D12091D7F0A7E007D00AE
:100323007C0012088E7D047FCD12091D7F057E009F
:100333007D007C0012088EE4FD7FB912091D7D4FFC
:0C0343007FCF12091D7DFF7F6F02091D96
:10067E001202B3E4FD7FBD12091D7D487F171209DA
:10068E001D7F0A7E007D007C0012088E7D807F3CDF
:10069E0012091D7D077F3E12091D7DFF7F3812094D
:1006AE001D7D077F3A12091DE4FD7F4012091D7D55
:1006BE00087F4212091DE4FD7F4412091D7D087F4B
:0F06CE004612091D7F017E007D007C0002088E10
:1003EB00E4F508C2A87F2B120928781DA607E4FDA7
:1003FB007F2912091DE4FD7F0212091D781DE630CD
:10040B00E42D7FB2120928EF642170237FBF1209FC
:10041B0028BF351B7FBA1209288F08E508D3940033
:10042B00400DE508D394045006781C7610800478B0
:10043B001C7611E4FD7F2B12091DE4FD7F1C1209B4
:10044B001DE4FD7F2912091DE4FD7F0212091DE445
:10045B00FD7F2B12091DE4FD7FBA12091DE4FD7F00
:10046B00BC12091D7D017F0812091DE4FD7F0812D6
:04047B00091DD2A8DD
:01047F00225A
:1006DD00E4F50AF50BF50A1209397F327E007D002B
:1006ED007C0012088E12034FEF700280117F0A7E7C
:1006FD00007D007C0012088E120480EF701012072E
:10070D00707F327E007D007C0012088E8005750B97
:0E071D00018009050AE50AC3940540BBAF0B35
:01072B0022AB
:10081900E4F510F50F7FB2120928BF210575100103
:1008290080147F0A7E007D007C0012088E050FE58A
:080839000FC3940A40DFAF1069
:010841002294
:0309390002067E35
:10048000C2A87D557F3512091D7D097F1C12091DEB
:100490007D207FBD12091D7D017F0812091D7F018E
:1004A0007E007D007C0012088EE4FD7F0812091D8D
:1004B0007F017E007D007C0012088E120819EF700B
:1004C00002FF227D0B7F1C12091D7DFF7FB21209E6
:1004D0001D7F017E007D007C0012088E7D067F3727
:1004E00012091D7F017E007D007C0012088E7D06B2
:1004F0007F3712091D7F057E007D007C0012088E6B
:100500007D107F2912091DE4FD7FBD12091DD2A8AF
:030510007F012246
:10034F00750D01E4F50C120819EF7005F50D020398
:10035F00E8E50C90060B93FD7FC112091DE4FD7FAC
:10036F00C312091D7D047F0812091D7F017E007DC8
:10037F00007C0012088EE4FD7F0812091D7F017EAC
:10038F00007D007C0012088EE4F50EE50C75F01B65
:10039F00A4249FF582E43405F583E582250EF582CA
:1003AF00E43583F583E493FD600E7F0512091D0587
:1003BF000EE50EC3941B40D3AD0E7FB912091D7D00
:1003CF00FF7FB212091D7D047F3712091D050CE551
:0B03DF000CC394045003020355AF0D43
:0103EA0022F0
:060933007FC51209282215
:0B091D00908100EFF0908000EDF022D0
:0B092800908100EFF0908000E0FF22C3
:04091800021925801B
:10084200759850758920AE19AF1AAB07AA06E4F95C
:10085200F8FF7EE1FDFC12072C12003F8F8B8F8D7B
:07086200D28ED2ACD2AF220E
:03002300020022B6
:0100220032AB
:0E08DF00C2ACC2998F993099FDC299D2AC2259
:100869008B0B8A0C890DAB0BAA0CA90D1200266003
:1008790013050DE50D7002050C14F9120026FF127F
:0508890008DF80E222FF
:03000000020513E3
:0C051300787FE4F6D8FD75811E02055AC1
:10002600BB010689828A83E0225002E722BBFE02D8
:09003600E32289828A83E493220B
:10072C00C2D5E830E70FB2D5E4C39BFBE49AFAE4F8
:10073C0099F9E498F8EC30E717B2D5120762120079
:10074C00A9E4C39BFBE49AFAE499F9E498F88003D2
:10075C001200A930D50DE4C39FFFE49EFEE49DFD7D
:04076C00E49CFC22EB
:0E003F00C3E49FFFE49EFEE49DFDE49CFC22D2
:10004D007401FF3395E0FEFDFC080808E6CF2FF69E
:10005D0018E6CE3EF618E6CD3DF618E6CC3CF62277
:10051F0002060FE493A3F8E493A34003F68001F2DD
:10052F0008DFF48029E493A3F85407240CC8C333DD
:10053F00C4540F4420C8834004F456800146F6DFAC
:10054F00E4800B0102040810204080900912E47E21
:10055F00019360BCA3FF543F30E509541FFEE493A1
:10056F00A360010ECF54C025E060A840B8E493A368
:10057F00FAE493A3F8E493A3C8C582C8CAC583CA93
:10058F00F0A3C8C582C8CAC583CADFE9DEE780BE4B
:01091C0000DA
:10006D0075F008758200EF2FFFEE33FECD33CDCC4A
:10007D0033CCC58233C5829BED9AEC99E5829840CD
:10008D000CF582EE9BFEED9AFDEC99FC0FD5F0D6AA
:10009D00E4CEFBE4CDFAE4CCF9A88222B800C1B9D4
:1000AD000059BA002DEC8BF084CFCECDFCE5F0CB12
:1000BD00F97818EF2FFFEE33FEED33FDEC33FCEB4B
:1000CD0033FB10D703994004EB99FB0FD8E5E4F906
:1000DD00FA227818EF2FFFEE33FEED33FDEC33FCF3
:1000ED00C933C910D7059BE99A4007EC9BFCE99AE7
:1000FD00F90FD8E0E4C9FAE4CCFB2275F010EF2F2C
:10010D00FFEE33FEED33FDCC33CCC833C810D7072B
:10011D009BEC9AE899400AED9BFDEC9AFCE899F866
:0E012D000FD5F0DAE4CDFBE4CCFAE4C8F922F9
:00000001FF
