:030000000200C536
:0C00C500787FE4F6D8FD75813A02010C4A
:10000300E4F52E1203D312048C12037F120279E556
:0E0013002E70FC12037F1201C412015180F105
:0C02FE00043388442211042F112244888C
:09045600C2A3C2A4C2A5C2A622E1
:09045F00D2A3C2A4D2A5C2A622B8
:09046800C2A3D2A4C2A5D2A622AF
:09047100C2A3D2A4D2A5C2A622A6
:09047A00D2A3C2A4C2A5D2A6229D
:09032D0029F8E6F5907F047E003A
:10033600E4FDFCC3ED9FEC9E5015E4FBFA0BBB00FD
:0F034600010AEB64704A70F50DBD00010C80E4F4
:010355002285
:1003E900E4F9E9C3940474809480500874331203C7
:0403F9002D0980EE5C
:0103FD0022DD
:1003FE00E4F9E9C39404748094805008742F1203B6
:04040E002D0980EE46
:0104120022C7
:04049E00E4F59022CF
:1003A300E4F53AC3E53A94AB7480948050071203A2
:0803B300FE053A80EE02049EF3
:1003BB00E4F53AC3E53A94AB74809480500712038A
:0803CB00E9053A80EE02049EF0
:06048C0012049E0204565A
:03002300020026B2
:10002600C0E0C0F0C083C082C0D075D000C000C0A0
:0D00360001C002C003C004C005C006C00721
:10004300309864C298AF99EF24C7600804700875AC
:100053002E008003752E01E52E604CEF24D0B407EB
:1000630000504490007475F003A4C58325F0C58344
:100073007302008902008E02009302009802009D21
:100083000200A20200A7120456801C12045F80170C
:100093001204688012120471800D12047A8008120F
:0700A30003BB80031203A35D
:1000AA00D007D006D005D004D003D002D001D000AA
:0B00BA00D0D0D082D083D0F0D0E03254
:1003D300759850758920E4F587758DFD758BFDD271
:0603E3008ED2ACD2AF2265
:10035600E4FEEEC39F5021E4FDEDC3940A7480943D
:10036600805012E4FCECC3941E7480948050030CFD
:0803760080F30D80E40E80DA33
:01037E00225C
:05049200007F0CDFFEFD
:010497002242
:080483007F247ED9DEFEDFFCC0
:01048B00224E
:0D043A00007F0B7E827D6FDDFEDEFCDFFAB1
:010447002292
:05049800007F1DDFFEE6
:01049D00223C
:10042700D2A0C2A0120483D2A012049830A0FD204B
:03043700A0FD2203
:1002C700E4FBFAF582F58330A0FD12049230A00911
:1002D7007C007D0130A00580FBE4FCFDEB25E0FB05
:1002E700EA33FAED4203EC4202A3E5826408458350
:0602F70070D5AE02AF035A
:0102FD0022DE
:10037F0012043A120427E4F9E9C3940574809480B7
:10038F0050111202C7E925E02424F8A60608A60793
:03039F000980E5ED
:0103A2002238
:10030A00040820543A00040C20483A00041025201E
:10031A0020000E1620202057656C636F6D65212121
:02032A002100B0
:100279007F381204487F0A1203567F381204487FD8
:100289000A1203567F0C1204487F061204487F01A4
:100299001204487F80120448E4F537C3E537940D0A
:1002A90074809480501374162537F8E6FF120417EA
:0E02B9007F0A120356053780E27F01020448D7
:1001C4007F80120448E4F538C3E5389403748094BE
:1001D40080500E74082538F8E6FF1204170538809D
:1001E400E7AE28AF297C007D0A120224AB07AE28B3
:1001F400AF297C007D0A1202248D37120413E537DF
:100204002430FF120417852B397F2E120417E53989
:100214002430FF1204177FDF1204177F43020417F0
:100151007FC0120448E4F538C3E5389403748094F1
:1001610080500E740C2538F8E6FF1204170538800C
:10017100E7AE24AF257C007D0A120224AB07AE2432
:10018100AF257C007D0A1202248D37120413E53756
:100191002430FF1204178527397F2E120417E53901
:1001A1002430FF120417E4F538C3E5389403748052
:1001B1009480500E74102538F8E6FF1204170538A4
:0201C10080E7D5
:0101C3002219
:04041300EB2430FFA7
:10041700D2A2D2A18F807F0A120356C2A1C2A22202
:0E044800C2A2D2A18F807F05120356C2A1224C
:1000D100020003E493A3F8E493A34003F68001F242
:1000E10008DFF48029E493A3F85407240CC8C33330
:1000F100C4540F4420C8834004F456800146F6DFFF
:10010100E4800B01020408102040809002FEE47E8E
:10011100019360BCA3FF543F30E509541FFEE493F3
:10012100A360010ECF54C025E060A840B8E493A3BA
:10013100FAE493A3F8E493A3C8C582C8CAC583CAE5
:10014100F0A3C8C582C8CAC583CADFE9DEE780BE9D
:01032C0000D0
:10022400BC000BBE0029EF8DF084FFADF022E4CCBE
:10023400F875F008EF2FFFEE33FEEC33FCEE9DEC87
:10024400984005FCEE9DFE0FD5F0E9E4CEFD22EDCD
:10025400F8F5F0EE8420D21CFEADF075F008EF2F17
:10026400FFED33FD4007985006D5F0F222C398FD08
:050274000FD5F0EA22A5
:00000001FF
