:0C011F00040C080402010408010204089A
:0900CC0029F8E6F5907F047E009E
:1000D500E4FDFCC3ED9FEC9E5015E4FBFA0BBB0061
:0F00E500010AEB64704A70F50DBD00010C80E458
:0100F40022E9
:1000F500E4F9E9C39404748094805008740C1200E8
:04010500CC0980EEB3
:0101090022D3
:10010A00E4F9E9C3940474809480500874081200D6
:04011A00CC0980EE9E
:01011E0022BE
:04012C00E4F5902244
:10008F007F327E001200D59000001200F5A3E582AA
:10009F0064AB458370F412012C7FF47E011200D5FE
:1000AF00E4F583F58212010AA3E58264AB45837000
:0D00BF00F412012C7FF47E011200D580CADE
:03000000020003F8
:0C000300787FE4F6D8FD75810F02004AFA
:10000F0002008FE493A3F8E493A34003F68001F278
:10001F0008DFF48029E493A3F85407240CC8C333F2
:10002F00C4540F4420C8834004F456800146F6DFC1
:10003F00E4800B010204081020408090011FE47E31
:10004F00019360BCA3FF543F30E509541FFEE493B6
:10005F00A360010ECF54C025E060A840B8E493A37D
:10006F00FAE493A3F8E493A3C8C582C8CAC583CAA8
:10007F00F0A3C8C582C8CAC583CADFE9DEE780BE60
:01012B0000D3
:00000001FF
